{
  "contracts/CoreLoanPlatform.sol": {
    "CoreLoanPlatform": {
      "abi": [
        {
          "inputs": [],
          "name": "BORROWABLE_RATIO",
          "outputs": [
            {
              "internalType": "uint256",
              "name": "",
              "type": "uint256"
            }
          ],
          "stateMutability": "view",
          "type": "function"
        },
        {
          "inputs": [],
          "name": "COLLATERAL_RATIO",
          "outputs": [
            {
              "internalType": "uint256",
              "name": "",
              "type": "uint256"
            }
          ],
          "stateMutability": "view",
          "type": "function"
        },
        {
          "inputs": [],
          "name": "INTEREST_RATE",
          "outputs": [
            {
              "internalType": "uint256",
              "name": "",
              "type": "uint256"
            }
          ],
          "stateMutability": "view",
          "type": "function"
        },
        {
          "inputs": [],
          "name": "LOAN_DURATION",
          "outputs": [
            {
              "internalType": "uint256",
              "name": "",
              "type": "uint256"
            }
          ],
          "stateMutability": "view",
          "type": "function"
        },
        {
          "inputs": [
            {
              "internalType": "uint256",
              "name": "amount",
              "type": "uint256"
            }
          ],
          "name": "borrowBTC",
          "outputs": [],
          "stateMutability": "nonpayable",
          "type": "function"
        },
        {
          "inputs": [
            {
              "internalType": "address",
              "name": "user",
              "type": "address"
            }
          ],
          "name": "calculateInterest",
          "outputs": [
            {
              "internalType": "uint256",
              "name": "",
              "type": "uint256"
            }
          ],
          "stateMutability": "view",
          "type": "function"
        },
        {
          "inputs": [
            {
              "internalType": "uint256",
              "name": "amount",
              "type": "uint256"
            }
          ],
          "name": "depositBTC",
          "outputs": [],
          "stateMutability": "nonpayable",
          "type": "function"
        },
        {
          "inputs": [
            {
              "internalType": "uint256",
              "name": "amount",
              "type": "uint256"
            }
          ],
          "name": "depositCollateral",
          "outputs": [],
          "stateMutability": "nonpayable",
          "type": "function"
        },
        {
          "inputs": [
            {
              "internalType": "address",
              "name": "user",
              "type": "address"
            }
          ],
          "name": "getBorrowableAmount",
          "outputs": [
            {
              "internalType": "uint256",
              "name": "",
              "type": "uint256"
            }
          ],
          "stateMutability": "view",
          "type": "function"
        },
        {
          "inputs": [],
          "name": "getCurrentApy",
          "outputs": [
            {
              "internalType": "uint256",
              "name": "",
              "type": "uint256"
            }
          ],
          "stateMutability": "pure",
          "type": "function"
        },
        {
          "inputs": [
            {
              "internalType": "address",
              "name": "lender",
              "type": "address"
            }
          ],
          "name": "getLenderBalance",
          "outputs": [
            {
              "internalType": "uint256",
              "name": "",
              "type": "uint256"
            }
          ],
          "stateMutability": "view",
          "type": "function"
        },
        {
          "inputs": [
            {
              "internalType": "address",
              "name": "borrower",
              "type": "address"
            }
          ],
          "name": "getLoanDetails",
          "outputs": [
            {
              "components": [
                {
                  "internalType": "uint256",
                  "name": "amount",
                  "type": "uint256"
                },
                {
                  "internalType": "uint256",
                  "name": "collateral",
                  "type": "uint256"
                },
                {
                  "internalType": "uint256",
                  "name": "timestamp",
                  "type": "uint256"
                },
                {
                  "internalType": "bool",
                  "name": "active",
                  "type": "bool"
                }
              ],
              "internalType": "struct CoreLoanPlatform.Loan",
              "name": "",
              "type": "tuple"
            }
          ],
          "stateMutability": "view",
          "type": "function"
        },
        {
          "inputs": [],
          "name": "getTotalBorrowed",
          "outputs": [
            {
              "internalType": "uint256",
              "name": "",
              "type": "uint256"
            }
          ],
          "stateMutability": "view",
          "type": "function"
        },
        {
          "inputs": [],
          "name": "getTotalStaked",
          "outputs": [
            {
              "internalType": "uint256",
              "name": "",
              "type": "uint256"
            }
          ],
          "stateMutability": "view",
          "type": "function"
        },
        {
          "inputs": [
            {
              "internalType": "address",
              "name": "user",
              "type": "address"
            }
          ],
          "name": "getUserBorrowed",
          "outputs": [
            {
              "internalType": "uint256",
              "name": "",
              "type": "uint256"
            }
          ],
          "stateMutability": "view",
          "type": "function"
        },
        {
          "inputs": [
            {
              "internalType": "address",
              "name": "user",
              "type": "address"
            }
          ],
          "name": "getUserCollateral",
          "outputs": [
            {
              "internalType": "uint256",
              "name": "",
              "type": "uint256"
            }
          ],
          "stateMutability": "view",
          "type": "function"
        },
        {
          "inputs": [
            {
              "internalType": "address",
              "name": "user",
              "type": "address"
            }
          ],
          "name": "getUserStaked",
          "outputs": [
            {
              "internalType": "uint256",
              "name": "",
              "type": "uint256"
            }
          ],
          "stateMutability": "view",
          "type": "function"
        },
        {
          "inputs": [
            {
              "internalType": "address",
              "name": "",
              "type": "address"
            }
          ],
          "name": "lenderBalances",
          "outputs": [
            {
              "internalType": "uint256",
              "name": "",
              "type": "uint256"
            }
          ],
          "stateMutability": "view",
          "type": "function"
        },
        {
          "inputs": [
            {
              "internalType": "address",
              "name": "",
              "type": "address"
            }
          ],
          "name": "loans",
          "outputs": [
            {
              "internalType": "uint256",
              "name": "amount",
              "type": "uint256"
            },
            {
              "internalType": "uint256",
              "name": "collateral",
              "type": "uint256"
            },
            {
              "internalType": "uint256",
              "name": "timestamp",
              "type": "uint256"
            },
            {
              "internalType": "bool",
              "name": "active",
              "type": "bool"
            }
          ],
          "stateMutability": "view",
          "type": "function"
        },
        {
          "inputs": [
            {
              "internalType": "address",
              "name": "user",
              "type": "address"
            }
          ],
          "name": "repayLoan",
          "outputs": [],
          "stateMutability": "nonpayable",
          "type": "function"
        },
        {
          "inputs": [
            {
              "internalType": "address",
              "name": "",
              "type": "address"
            }
          ],
          "name": "userCollateral",
          "outputs": [
            {
              "internalType": "uint256",
              "name": "",
              "type": "uint256"
            }
          ],
          "stateMutability": "view",
          "type": "function"
        },
        {
          "inputs": [
            {
              "internalType": "uint256",
              "name": "amount",
              "type": "uint256"
            }
          ],
          "name": "withdrawBTC",
          "outputs": [],
          "stateMutability": "nonpayable",
          "type": "function"
        },
        {
          "inputs": [
            {
              "internalType": "uint256",
              "name": "amount",
              "type": "uint256"
            }
          ],
          "name": "withdrawCollateral",
          "outputs": [],
          "stateMutability": "nonpayable",
          "type": "function"
        }
      ],
      "evm": {
        "bytecode": {
          "linkReferences": {},
          "object": "608060405260008055600060015534801561001957600080fd5b506103a1806100296000396000f3fe608060405234801561001057600080fd5b506004361061018d5760003560e01c8063b6f7132f116100e3578063e02a4dfd1161008c578063e8a7da8e11610066578063e8a7da8e1461027b578063f4925de514610192578063f69f1e4a146102c357600080fd5b8063e02a4dfd14610271578063e11932cf146101d1578063e86ef40b146101d157600080fd5b8063d1a40564116100bd578063d1a40564146101c3578063d9e69a0514610269578063dac3fc3f146101d157600080fd5b8063b6f7132f146101d1578063bad4a01f146101c3578063bd09085a146101d157600080fd5b8063691d1eb31161014557806390b4588b1161011f57806390b4588b146101c3578063a27a944d14610249578063a6b6d798146101c357600080fd5b8063691d1eb3146101d15780636e35f124146101e557806373b4086b146101ed57600080fd5b8063190ef1e611610176578063190ef1e6146101a85780635b72a33a146101bb5780636112fe2e146101c357600080fd5b80630307c4a1146101925780630917e77614610192575b600080fd5b60005b6040519081526020015b60405180910390f35b6101b96101b6366004610315565b50565b005b610195600581565b6101b96101b6366004610352565b6101956101df366004610315565b50600090565b610195605081565b6102276101fb366004610315565b600260208190526000918252604090912080546001820154928201546003909201549092919060ff1684565b604080519485526020850193909352918301521515606082015260800161019f565b610195610257366004610315565b60036020526000908152604090205481565b610195609681565b61019562278d0081565b61028e610289366004610315565b6102e3565b60405161019f919081518152602080830151908201526040808301519082015260609182015115159181019190915260800190565b6101956102d1366004610315565b60046020526000908152604090205481565b61031060405180608001604052806000815260200160008152602001600081526020016000151581525090565b919050565b60006020828403121561032757600080fd5b813573ffffffffffffffffffffffffffffffffffffffff8116811461034b57600080fd5b9392505050565b60006020828403121561036457600080fd5b503591905056fea26469706673582212208d830e8478c93fc499303a96c91100195966c4da71d3426f46cae79e91bdbdd664736f6c63430008180033",
          "opcodes": "PUSH1 0x80 PUSH1 0x40 MSTORE PUSH1 0x0 DUP1 SSTORE PUSH1 0x0 PUSH1 0x1 SSTORE CALLVALUE DUP1 ISZERO PUSH2 0x19 JUMPI PUSH1 0x0 DUP1 REVERT JUMPDEST POP PUSH2 0x3A1 DUP1 PUSH2 0x29 PUSH1 0x0 CODECOPY PUSH1 0x0 RETURN INVALID PUSH1 0x80 PUSH1 0x40 MSTORE CALLVALUE DUP1 ISZERO PUSH2 0x10 JUMPI PUSH1 0x0 DUP1 REVERT JUMPDEST POP PUSH1 0x4 CALLDATASIZE LT PUSH2 0x18D JUMPI PUSH1 0x0 CALLDATALOAD PUSH1 0xE0 SHR DUP1 PUSH4 0xB6F7132F GT PUSH2 0xE3 JUMPI DUP1 PUSH4 0xE02A4DFD GT PUSH2 0x8C JUMPI DUP1 PUSH4 0xE8A7DA8E GT PUSH2 0x66 JUMPI DUP1 PUSH4 0xE8A7DA8E EQ PUSH2 0x27B JUMPI DUP1 PUSH4 0xF4925DE5 EQ PUSH2 0x192 JUMPI DUP1 PUSH4 0xF69F1E4A EQ PUSH2 0x2C3 JUMPI PUSH1 0x0 DUP1 REVERT JUMPDEST DUP1 PUSH4 0xE02A4DFD EQ PUSH2 0x271 JUMPI DUP1 PUSH4 0xE11932CF EQ PUSH2 0x1D1 JUMPI DUP1 PUSH4 0xE86EF40B EQ PUSH2 0x1D1 JUMPI PUSH1 0x0 DUP1 REVERT JUMPDEST DUP1 PUSH4 0xD1A40564 GT PUSH2 0xBD JUMPI DUP1 PUSH4 0xD1A40564 EQ PUSH2 0x1C3 JUMPI DUP1 PUSH4 0xD9E69A05 EQ PUSH2 0x269 JUMPI DUP1 PUSH4 0xDAC3FC3F EQ PUSH2 0x1D1 JUMPI PUSH1 0x0 DUP1 REVERT JUMPDEST DUP1 PUSH4 0xB6F7132F EQ PUSH2 0x1D1 JUMPI DUP1 PUSH4 0xBAD4A01F EQ PUSH2 0x1C3 JUMPI DUP1 PUSH4 0xBD09085A EQ PUSH2 0x1D1 JUMPI PUSH1 0x0 DUP1 REVERT JUMPDEST DUP1 PUSH4 0x691D1EB3 GT PUSH2 0x145 JUMPI DUP1 PUSH4 0x90B4588B GT PUSH2 0x11F JUMPI DUP1 PUSH4 0x90B4588B EQ PUSH2 0x1C3 JUMPI DUP1 PUSH4 0xA27A944D EQ PUSH2 0x249 JUMPI DUP1 PUSH4 0xA6B6D798 EQ PUSH2 0x1C3 JUMPI PUSH1 0x0 DUP1 REVERT JUMPDEST DUP1 PUSH4 0x691D1EB3 EQ PUSH2 0x1D1 JUMPI DUP1 PUSH4 0x6E35F124 EQ PUSH2 0x1E5 JUMPI DUP1 PUSH4 0x73B4086B EQ PUSH2 0x1ED JUMPI PUSH1 0x0 DUP1 REVERT JUMPDEST DUP1 PUSH4 0x190EF1E6 GT PUSH2 0x176 JUMPI DUP1 PUSH4 0x190EF1E6 EQ PUSH2 0x1A8 JUMPI DUP1 PUSH4 0x5B72A33A EQ PUSH2 0x1BB JUMPI DUP1 PUSH4 0x6112FE2E EQ PUSH2 0x1C3 JUMPI PUSH1 0x0 DUP1 REVERT JUMPDEST DUP1 PUSH4 0x307C4A1 EQ PUSH2 0x192 JUMPI DUP1 PUSH4 0x917E776 EQ PUSH2 0x192 JUMPI JUMPDEST PUSH1 0x0 DUP1 REVERT JUMPDEST PUSH1 0x0 JUMPDEST PUSH1 0x40 MLOAD SWAP1 DUP2 MSTORE PUSH1 0x20 ADD JUMPDEST PUSH1 0x40 MLOAD DUP1 SWAP2 SUB SWAP1 RETURN JUMPDEST PUSH2 0x1B9 PUSH2 0x1B6 CALLDATASIZE PUSH1 0x4 PUSH2 0x315 JUMP JUMPDEST POP JUMP JUMPDEST STOP JUMPDEST PUSH2 0x195 PUSH1 0x5 DUP2 JUMP JUMPDEST PUSH2 0x1B9 PUSH2 0x1B6 CALLDATASIZE PUSH1 0x4 PUSH2 0x352 JUMP JUMPDEST PUSH2 0x195 PUSH2 0x1DF CALLDATASIZE PUSH1 0x4 PUSH2 0x315 JUMP JUMPDEST POP PUSH1 0x0 SWAP1 JUMP JUMPDEST PUSH2 0x195 PUSH1 0x50 DUP2 JUMP JUMPDEST PUSH2 0x227 PUSH2 0x1FB CALLDATASIZE PUSH1 0x4 PUSH2 0x315 JUMP JUMPDEST PUSH1 0x2 PUSH1 0x20 DUP2 SWAP1 MSTORE PUSH1 0x0 SWAP2 DUP3 MSTORE PUSH1 0x40 SWAP1 SWAP2 KECCAK256 DUP1 SLOAD PUSH1 0x1 DUP3 ADD SLOAD SWAP3 DUP3 ADD SLOAD PUSH1 0x3 SWAP1 SWAP3 ADD SLOAD SWAP1 SWAP3 SWAP2 SWAP1 PUSH1 0xFF AND DUP5 JUMP JUMPDEST PUSH1 0x40 DUP1 MLOAD SWAP5 DUP6 MSTORE PUSH1 0x20 DUP6 ADD SWAP4 SWAP1 SWAP4 MSTORE SWAP2 DUP4 ADD MSTORE ISZERO ISZERO PUSH1 0x60 DUP3 ADD MSTORE PUSH1 0x80 ADD PUSH2 0x19F JUMP JUMPDEST PUSH2 0x195 PUSH2 0x257 CALLDATASIZE PUSH1 0x4 PUSH2 0x315 JUMP JUMPDEST PUSH1 0x3 PUSH1 0x20 MSTORE PUSH1 0x0 SWAP1 DUP2 MSTORE PUSH1 0x40 SWAP1 KECCAK256 SLOAD DUP2 JUMP JUMPDEST PUSH2 0x195 PUSH1 0x96 DUP2 JUMP JUMPDEST PUSH2 0x195 PUSH3 0x278D00 DUP2 JUMP JUMPDEST PUSH2 0x28E PUSH2 0x289 CALLDATASIZE PUSH1 0x4 PUSH2 0x315 JUMP JUMPDEST PUSH2 0x2E3 JUMP JUMPDEST PUSH1 0x40 MLOAD PUSH2 0x19F SWAP2 SWAP1 DUP2 MLOAD DUP2 MSTORE PUSH1 0x20 DUP1 DUP4 ADD MLOAD SWAP1 DUP3 ADD MSTORE PUSH1 0x40 DUP1 DUP4 ADD MLOAD SWAP1 DUP3 ADD MSTORE PUSH1 0x60 SWAP2 DUP3 ADD MLOAD ISZERO ISZERO SWAP2 DUP2 ADD SWAP2 SWAP1 SWAP2 MSTORE PUSH1 0x80 ADD SWAP1 JUMP JUMPDEST PUSH2 0x195 PUSH2 0x2D1 CALLDATASIZE PUSH1 0x4 PUSH2 0x315 JUMP JUMPDEST PUSH1 0x4 PUSH1 0x20 MSTORE PUSH1 0x0 SWAP1 DUP2 MSTORE PUSH1 0x40 SWAP1 KECCAK256 SLOAD DUP2 JUMP JUMPDEST PUSH2 0x310 PUSH1 0x40 MLOAD DUP1 PUSH1 0x80 ADD PUSH1 0x40 MSTORE DUP1 PUSH1 0x0 DUP2 MSTORE PUSH1 0x20 ADD PUSH1 0x0 DUP2 MSTORE PUSH1 0x20 ADD PUSH1 0x0 DUP2 MSTORE PUSH1 0x20 ADD PUSH1 0x0 ISZERO ISZERO DUP2 MSTORE POP SWAP1 JUMP JUMPDEST SWAP2 SWAP1 POP JUMP JUMPDEST PUSH1 0x0 PUSH1 0x20 DUP3 DUP5 SUB SLT ISZERO PUSH2 0x327 JUMPI PUSH1 0x0 DUP1 REVERT JUMPDEST DUP2 CALLDATALOAD PUSH20 0xFFFFFFFFFFFFFFFFFFFFFFFFFFFFFFFFFFFFFFFF DUP2 AND DUP2 EQ PUSH2 0x34B JUMPI PUSH1 0x0 DUP1 REVERT JUMPDEST SWAP4 SWAP3 POP POP POP JUMP JUMPDEST PUSH1 0x0 PUSH1 0x20 DUP3 DUP5 SUB SLT ISZERO PUSH2 0x364 JUMPI PUSH1 0x0 DUP1 REVERT JUMPDEST POP CALLDATALOAD SWAP2 SWAP1 POP JUMP INVALID LOG2 PUSH5 0x6970667358 0x22 SLT KECCAK256 DUP14 DUP4 0xE DUP5 PUSH25 0xC93FC499303A96C91100195966C4DA71D3426F46CAE79E91BD 0xBD 0xD6 PUSH5 0x736F6C6343 STOP ADDMOD XOR STOP CALLER "
        },
        "methodIdentifiers": {
          "BORROWABLE_RATIO()": "6e35f124",
          "COLLATERAL_RATIO()": "d9e69a05",
          "INTEREST_RATE()": "5b72a33a",
          "LOAN_DURATION()": "e02a4dfd",
          "borrowBTC(uint256)": "d1a40564",
          "calculateInterest(address)": "e11932cf",
          "depositBTC(uint256)": "a6b6d798",
          "depositCollateral(uint256)": "bad4a01f",
          "getBorrowableAmount(address)": "691d1eb3",
          "getCurrentApy()": "f4925de5",
          "getLenderBalance(address)": "bd09085a",
          "getLoanDetails(address)": "e8a7da8e",
          "getTotalBorrowed()": "0307c4a1",
          "getTotalStaked()": "0917e776",
          "getUserBorrowed(address)": "e86ef40b",
          "getUserCollateral(address)": "b6f7132f",
          "getUserStaked(address)": "dac3fc3f",
          "lenderBalances(address)": "a27a944d",
          "loans(address)": "73b4086b",
          "repayLoan(address)": "190ef1e6",
          "userCollateral(address)": "f69f1e4a",
          "withdrawBTC(uint256)": "90b4588b",
          "withdrawCollateral(uint256)": "6112fe2e"
        }
      }
    }
  }
}